{"abi":[{"type":"constructor","inputs":[{"name":"cusd","type":"address","internalType":"address"}],"stateMutability":"nonpayable"},{"type":"function","name":"I_CUSD","inputs":[],"outputs":[{"name":"","type":"address","internalType":"contract IERC20"}],"stateMutability":"view"},{"type":"function","name":"book","inputs":[{"name":"propertyId","type":"uint256","internalType":"uint256"},{"name":"checkInDate","type":"uint256","internalType":"uint256"},{"name":"checkOutDate","type":"uint256","internalType":"uint256"}],"outputs":[],"stateMutability":"payable"},{"type":"function","name":"createProperty","inputs":[{"name":"title","type":"string","internalType":"string"},{"name":"location","type":"string","internalType":"string"},{"name":"metadataURI","type":"string","internalType":"string"},{"name":"nightlyPrice","type":"uint256","internalType":"uint256"},{"name":"paymentAsset","type":"uint256","internalType":"uint256"}],"outputs":[],"stateMutability":"nonpayable"},{"type":"function","name":"getBooking","inputs":[{"name":"bookingId","type":"uint256","internalType":"uint256"}],"outputs":[{"name":"","type":"tuple","internalType":"struct LedgerLounge.Booking","components":[{"name":"propertyId","type":"uint256","internalType":"uint256"},{"name":"guest","type":"address","internalType":"address"},{"name":"checkInDate","type":"uint256","internalType":"uint256"},{"name":"checkOutDate","type":"uint256","internalType":"uint256"},{"name":"totalPrice","type":"uint256","internalType":"uint256"},{"name":"paymentAsset","type":"uint8","internalType":"enum LedgerLounge.PaymentAsset"},{"name":"active","type":"bool","internalType":"bool"}]}],"stateMutability":"view"},{"type":"function","name":"getNextBookingId","inputs":[],"outputs":[{"name":"","type":"uint256","internalType":"uint256"}],"stateMutability":"view"},{"type":"function","name":"getNextPropertyId","inputs":[],"outputs":[{"name":"","type":"uint256","internalType":"uint256"}],"stateMutability":"view"},{"type":"function","name":"getProperty","inputs":[{"name":"propertyId","type":"uint256","internalType":"uint256"}],"outputs":[{"name":"","type":"tuple","internalType":"struct LedgerLounge.Property","components":[{"name":"host","type":"address","internalType":"address"},{"name":"title","type":"string","internalType":"string"},{"name":"location","type":"string","internalType":"string"},{"name":"metadataURI","type":"string","internalType":"string"},{"name":"nightlyPrice","type":"uint256","internalType":"uint256"},{"name":"paymentAsset","type":"uint8","internalType":"enum LedgerLounge.PaymentAsset"},{"name":"active","type":"bool","internalType":"bool"}]}],"stateMutability":"view"},{"type":"function","name":"getPropertyBookings","inputs":[{"name":"propertyId","type":"uint256","internalType":"uint256"}],"outputs":[{"name":"","type":"uint256[]","internalType":"uint256[]"}],"stateMutability":"view"},{"type":"function","name":"isDateRangeAvailable","inputs":[{"name":"propertyId","type":"uint256","internalType":"uint256"},{"name":"checkInDate","type":"uint256","internalType":"uint256"},{"name":"checkOutDate","type":"uint256","internalType":"uint256"}],"outputs":[{"name":"","type":"bool","internalType":"bool"}],"stateMutability":"view"},{"type":"function","name":"setPropertyActive","inputs":[{"name":"propertyId","type":"uint256","internalType":"uint256"},{"name":"active","type":"bool","internalType":"bool"}],"outputs":[],"stateMutability":"nonpayable"},{"type":"event","name":"BookingCreated","inputs":[{"name":"bookingId","type":"uint256","indexed":true,"internalType":"uint256"},{"name":"propertyId","type":"uint256","indexed":true,"internalType":"uint256"},{"name":"guest","type":"address","indexed":true,"internalType":"address"},{"name":"checkInDate","type":"uint256","indexed":false,"internalType":"uint256"},{"name":"checkOutDate","type":"uint256","indexed":false,"internalType":"uint256"},{"name":"totalPrice","type":"uint256","indexed":false,"internalType":"uint256"},{"name":"paymentAsset","type":"uint8","indexed":false,"internalType":"enum LedgerLounge.PaymentAsset"}],"anonymous":false},{"type":"event","name":"PropertyCreated","inputs":[{"name":"propertyId","type":"uint256","indexed":true,"internalType":"uint256"},{"name":"host","type":"address","indexed":true,"internalType":"address"},{"name":"title","type":"string","indexed":false,"internalType":"string"},{"name":"nightlyPrice","type":"uint256","indexed":false,"internalType":"uint256"},{"name":"paymentAsset","type":"uint8","indexed":false,"internalType":"enum LedgerLounge.PaymentAsset"}],"anonymous":false},{"type":"event","name":"PropertyStatusUpdated","inputs":[{"name":"propertyId","type":"uint256","indexed":true,"internalType":"uint256"},{"name":"active","type":"bool","indexed":false,"internalType":"bool"}],"anonymous":false},{"type":"error","name":"LedgerLounge__DatesNotAvailable","inputs":[]},{"type":"error","name":"LedgerLounge__IncorrectPaymentAmount","inputs":[]},{"type":"error","name":"LedgerLounge__InvalidDates","inputs":[]},{"type":"error","name":"LedgerLounge__InvalidPaymentAsset","inputs":[]},{"type":"error","name":"LedgerLounge__InvalidPrice","inputs":[]},{"type":"error","name":"LedgerLounge__NotHost","inputs":[]},{"type":"error","name":"LedgerLounge__PaymentFailed","inputs":[]},{"type":"error","name":"LedgerLounge__PropertyDoesNotExist","inputs":[]},{"type":"error","name":"LedgerLounge__PropertyNotActive","inputs":[]}],"bytecode":{"object":"0x60a060405260015f5560018055348015610017575f5ffd5b5060405161249f38038061249f833981810160405281019061003991906100d1565b8073ffffffffffffffffffffffffffffffffffffffff1660808173ffffffffffffffffffffffffffffffffffffffff1681525050506100fc565b5f5ffd5b5f73ffffffffffffffffffffffffffffffffffffffff82169050919050565b5f6100a082610077565b9050919050565b6100b081610096565b81146100ba575f5ffd5b50565b5f815190506100cb816100a7565b92915050565b5f602082840312156100e6576100e5610073565b5b5f6100f3848285016100bd565b91505092915050565b60805161238461011b5f395f8181610d56015261153901526123845ff3fe60806040526004361061008f575f3560e01c80637472bc38116100585780637472bc381461018b578063a93db7d0146101b3578063bb5095d6146101ef578063e81e238414610219578063ec5310e1146102435761008f565b8062d913e014610093578063097b6be3146100bb57806332665ffb146100f75780634c4c2010146101335780636a5c841a1461014f575b5f5ffd5b34801561009e575f5ffd5b506100b960048036038101906100b49190611697565b61026d565b005b3480156100c6575f5ffd5b506100e160048036038101906100dc91906116d5565b61036c565b6040516100ee91906117b7565b60405180910390f35b348015610102575f5ffd5b5061011d600480360381019061011891906116d5565b6103d3565b60405161012a91906119af565b60405180910390f35b61014d600480360381019061014891906119cf565b610661565b005b34801561015a575f5ffd5b50610175600480360381019061017091906116d5565b611012565b6040516101829190611aab565b60405180910390f35b348015610196575f5ffd5b506101b160048036038101906101ac9190611bf0565b61110e565b005b3480156101be575f5ffd5b506101d960048036038101906101d491906119cf565b61135d565b6040516101e69190611cca565b60405180910390f35b3480156101fa575f5ffd5b50610203611526565b6040516102109190611cf2565b60405180910390f35b348015610224575f5ffd5b5061022d61152e565b60405161023a9190611cf2565b60405180910390f35b34801561024e575f5ffd5b50610257611537565b6040516102649190611d66565b60405180910390f35b3373ffffffffffffffffffffffffffffffffffffffff1660025f8481526020019081526020015f205f015f9054906101000a900473ffffffffffffffffffffffffffffffffffffffff1673ffffffffffffffffffffffffffffffffffffffff1614610304576040517fd161034700000000000000000000000000000000000000000000000000000000815260040160405180910390fd5b8060025f8481526020019081526020015f2060050160016101000a81548160ff021916908315150217905550817fa3d44d1d4e082efa8adf548ff411647ffe25d72842a3f0e6a73a209306153ed5826040516103609190611cca565b60405180910390a25050565b606060045f8381526020019081526020015f208054806020026020016040519081016040528092919081815260200182805480156103c757602002820191905f5260205f20905b8154815260200190600101908083116103b3575b50505050509050919050565b6103db61155b565b60025f8381526020019081526020015f206040518060e00160405290815f82015f9054906101000a900473ffffffffffffffffffffffffffffffffffffffff1673ffffffffffffffffffffffffffffffffffffffff1673ffffffffffffffffffffffffffffffffffffffff16815260200160018201805461045b90611dac565b80601f016020809104026020016040519081016040528092919081815260200182805461048790611dac565b80156104d25780601f106104a9576101008083540402835291602001916104d2565b820191905f5260205f20905b8154815290600101906020018083116104b557829003601f168201915b505050505081526020016002820180546104eb90611dac565b80601f016020809104026020016040519081016040528092919081815260200182805461051790611dac565b80156105625780601f1061053957610100808354040283529160200191610562565b820191905f5260205f20905b81548152906001019060200180831161054557829003601f168201915b5050505050815260200160038201805461057b90611dac565b80601f01602080910402602001604051908101604052809291908181526020018280546105a790611dac565b80156105f25780601f106105c9576101008083540402835291602001916105f2565b820191905f5260205f20905b8154815290600101906020018083116105d557829003601f168201915b5050505050815260200160048201548152602001600582015f9054906101000a900460ff16600181111561062957610628611886565b5b600181111561063b5761063a611886565b5b81526020016005820160019054906101000a900460ff1615151515815250509050919050565b5f60025f8581526020019081526020015f206040518060e00160405290815f82015f9054906101000a900473ffffffffffffffffffffffffffffffffffffffff1673ffffffffffffffffffffffffffffffffffffffff1673ffffffffffffffffffffffffffffffffffffffff1681526020016001820180546106e290611dac565b80601f016020809104026020016040519081016040528092919081815260200182805461070e90611dac565b80156107595780601f1061073057610100808354040283529160200191610759565b820191905f5260205f20905b81548152906001019060200180831161073c57829003601f168201915b5050505050815260200160028201805461077290611dac565b80601f016020809104026020016040519081016040528092919081815260200182805461079e90611dac565b80156107e95780601f106107c0576101008083540402835291602001916107e9565b820191905f5260205f20905b8154815290600101906020018083116107cc57829003601f168201915b5050505050815260200160038201805461080290611dac565b80601f016020809104026020016040519081016040528092919081815260200182805461082e90611dac565b80156108795780601f1061085057610100808354040283529160200191610879565b820191905f5260205f20905b81548152906001019060200180831161085c57829003601f168201915b5050505050815260200160048201548152602001600582015f9054906101000a900460ff1660018111156108b0576108af611886565b5b60018111156108c2576108c1611886565b5b81526020016005820160019054906101000a900460ff16151515158152505090505f73ffffffffffffffffffffffffffffffffffffffff16815f015173ffffffffffffffffffffffffffffffffffffffff160361094b576040517f243388bf00000000000000000000000000000000000000000000000000000000815260040160405180910390fd5b8060c00151610986576040517fa506fcc200000000000000000000000000000000000000000000000000000000815260040160405180910390fd5b8183106109bf576040517f463c5e6800000000000000000000000000000000000000000000000000000000815260040160405180910390fd5b5f6201518084846109d09190611e09565b6109da9190611e69565b90505f8103610a15576040517f463c5e6800000000000000000000000000000000000000000000000000000000815260040160405180910390fd5b5f826080015182610a269190611e99565b90505f60045f8881526020019081526020015f20805480602002602001604051908101604052809291908181526020018280548015610a8257602002820191905f5260205f20905b815481526020019060010190808311610a6e575b505050505090505f5f90505b8151811015610c09575f60035f848481518110610aae57610aad611eda565b5b602002602001015181526020019081526020015f206040518060e00160405290815f8201548152602001600182015f9054906101000a900473ffffffffffffffffffffffffffffffffffffffff1673ffffffffffffffffffffffffffffffffffffffff1673ffffffffffffffffffffffffffffffffffffffff168152602001600282015481526020016003820154815260200160048201548152602001600582015f9054906101000a900460ff166001811115610b6e57610b6d611886565b5b6001811115610b8057610b7f611886565b5b81526020016005820160019054906101000a900460ff16151515158152505090508060c001518015610bb55750806060015188105b8015610bc45750806040015187115b15610bfb576040517fbfd787a800000000000000000000000000000000000000000000000000000000815260040160405180910390fd5b508080600101915050610a8e565b505f6001811115610c1d57610c1c611886565b5b8460a001516001811115610c3457610c33611886565b5b03610d1a57813414610c72576040517fc57d9a8600000000000000000000000000000000000000000000000000000000815260040160405180910390fd5b5f845f015173ffffffffffffffffffffffffffffffffffffffff1683604051610c9a90611f34565b5f6040518083038185875af1925050503d805f8114610cd4576040519150601f19603f3d011682016040523d82523d5f602084013e610cd9565b606091505b5050905080610d14576040517f5e22182d00000000000000000000000000000000000000000000000000000000815260040160405180910390fd5b50610e2f565b5f3414610d53576040517fc57d9a8600000000000000000000000000000000000000000000000000000000815260040160405180910390fd5b5f7f000000000000000000000000000000000000000000000000000000000000000073ffffffffffffffffffffffffffffffffffffffff166323b872dd33875f0151866040518463ffffffff1660e01b8152600401610db493929190611f57565b6020604051808303815f875af1158015610dd0573d5f5f3e3d5ffd5b505050506040513d601f19601f82011682018060405250810190610df49190611fa0565b905080610e2d576040517f5e22182d00000000000000000000000000000000000000000000000000000000815260040160405180910390fd5b505b5f60015f815480929190610e4290611fcb565b9190505590506040518060e001604052808981526020013373ffffffffffffffffffffffffffffffffffffffff1681526020018881526020018781526020018481526020018660a001516001811115610e9e57610e9d611886565b5b81526020016001151581525060035f8381526020019081526020015f205f820151815f01556020820151816001015f6101000a81548173ffffffffffffffffffffffffffffffffffffffff021916908373ffffffffffffffffffffffffffffffffffffffff16021790555060408201518160020155606082015181600301556080820151816004015560a0820151816005015f6101000a81548160ff02191690836001811115610f5157610f50611886565b5b021790555060c08201518160050160016101000a81548160ff02191690831515021790555090505060045f8981526020019081526020015f2081908060018154018082558091505060019003905f5260205f20015f90919091909150553373ffffffffffffffffffffffffffffffffffffffff1688827f53a8ebdb75f082036eca86284da55836e5a719c2de75c9033d92c0fdae9c34df8a8a888b60a001516040516110009493929190612021565b60405180910390a45050505050505050565b61101a6115be565b60035f8381526020019081526020015f206040518060e00160405290815f8201548152602001600182015f9054906101000a900473ffffffffffffffffffffffffffffffffffffffff1673ffffffffffffffffffffffffffffffffffffffff1673ffffffffffffffffffffffffffffffffffffffff168152602001600282015481526020016003820154815260200160048201548152602001600582015f9054906101000a900460ff1660018111156110d6576110d5611886565b5b60018111156110e8576110e7611886565b5b81526020016005820160019054906101000a900460ff1615151515815250509050919050565b5f8203611147576040517f07c9c7d100000000000000000000000000000000000000000000000000000000815260040160405180910390fd5b6001811115611182576040517ff955f3a100000000000000000000000000000000000000000000000000000000815260040160405180910390fd5b5f81600181111561119657611195611886565b5b90505f5f5f8154809291906111aa90611fcb565b9190505590506040518060e001604052803373ffffffffffffffffffffffffffffffffffffffff16815260200188815260200187815260200186815260200185815260200183600181111561120257611201611886565b5b81526020016001151581525060025f8381526020019081526020015f205f820151815f015f6101000a81548173ffffffffffffffffffffffffffffffffffffffff021916908373ffffffffffffffffffffffffffffffffffffffff160217905550602082015181600101908161127891906121fb565b50604082015181600201908161128e91906121fb565b5060608201518160030190816112a491906121fb565b506080820151816004015560a0820151816005015f6101000a81548160ff021916908360018111156112d9576112d8611886565b5b021790555060c08201518160050160016101000a81548160ff0219169083151502179055509050503373ffffffffffffffffffffffffffffffffffffffff16817fb9bef06665fbb65e04868f83a5a9579097ff59fa17c14f0084b27f13f9e5349789878660405161134c93929190612312565b60405180910390a350505050505050565b5f5f60045f8681526020019081526020015f208054806020026020016040519081016040528092919081815260200182805480156113b857602002820191905f5260205f20905b8154815260200190600101908083116113a4575b505050505090505f5f90505b8151811015611518575f60035f8484815181106113e4576113e3611eda565b5b602002602001015181526020019081526020015f206040518060e00160405290815f8201548152602001600182015f9054906101000a900473ffffffffffffffffffffffffffffffffffffffff1673ffffffffffffffffffffffffffffffffffffffff1673ffffffffffffffffffffffffffffffffffffffff168152602001600282015481526020016003820154815260200160048201548152602001600582015f9054906101000a900460ff1660018111156114a4576114a3611886565b5b60018111156114b6576114b5611886565b5b81526020016005820160019054906101000a900460ff16151515158152505090508060c0015180156114eb5750806060015186105b80156114fa5750806040015185115b1561150a575f935050505061151f565b5080806001019150506113c4565b5060019150505b9392505050565b5f5f54905090565b5f600154905090565b7f000000000000000000000000000000000000000000000000000000000000000081565b6040518060e001604052805f73ffffffffffffffffffffffffffffffffffffffff1681526020016060815260200160608152602001606081526020015f81526020015f60018111156115b0576115af611886565b5b81526020015f151581525090565b6040518060e001604052805f81526020015f73ffffffffffffffffffffffffffffffffffffffff1681526020015f81526020015f81526020015f81526020015f60018111156116105761160f611886565b5b81526020015f151581525090565b5f604051905090565b5f5ffd5b5f5ffd5b5f819050919050565b6116418161162f565b811461164b575f5ffd5b50565b5f8135905061165c81611638565b92915050565b5f8115159050919050565b61167681611662565b8114611680575f5ffd5b50565b5f813590506116918161166d565b92915050565b5f5f604083850312156116ad576116ac611627565b5b5f6116ba8582860161164e565b92505060206116cb85828601611683565b9150509250929050565b5f602082840312156116ea576116e9611627565b5b5f6116f78482850161164e565b91505092915050565b5f81519050919050565b5f82825260208201905092915050565b5f819050602082019050919050565b6117328161162f565b82525050565b5f6117438383611729565b60208301905092915050565b5f602082019050919050565b5f61176582611700565b61176f818561170a565b935061177a8361171a565b805f5b838110156117aa5781516117918882611738565b975061179c8361174f565b92505060018101905061177d565b5085935050505092915050565b5f6020820190508181035f8301526117cf818461175b565b905092915050565b5f73ffffffffffffffffffffffffffffffffffffffff82169050919050565b5f611800826117d7565b9050919050565b611810816117f6565b82525050565b5f81519050919050565b5f82825260208201905092915050565b8281835e5f83830152505050565b5f601f19601f8301169050919050565b5f61185882611816565b6118628185611820565b9350611872818560208601611830565b61187b8161183e565b840191505092915050565b7f4e487b71000000000000000000000000000000000000000000000000000000005f52602160045260245ffd5b600281106118c4576118c3611886565b5b50565b5f8190506118d4826118b3565b919050565b5f6118e3826118c7565b9050919050565b6118f3816118d9565b82525050565b61190281611662565b82525050565b5f60e083015f83015161191d5f860182611807565b5060208301518482036020860152611935828261184e565b9150506040830151848203604086015261194f828261184e565b91505060608301518482036060860152611969828261184e565b915050608083015161197e6080860182611729565b5060a083015161199160a08601826118ea565b5060c08301516119a460c08601826118f9565b508091505092915050565b5f6020820190508181035f8301526119c78184611908565b905092915050565b5f5f5f606084860312156119e6576119e5611627565b5b5f6119f38682870161164e565b9350506020611a048682870161164e565b9250506040611a158682870161164e565b9150509250925092565b60e082015f820151611a335f850182611729565b506020820151611a466020850182611807565b506040820151611a596040850182611729565b506060820151611a6c6060850182611729565b506080820151611a7f6080850182611729565b5060a0820151611a9260a08501826118ea565b5060c0820151611aa560c08501826118f9565b50505050565b5f60e082019050611abe5f830184611a1f565b92915050565b5f5ffd5b5f5ffd5b7f4e487b71000000000000000000000000000000000000000000000000000000005f52604160045260245ffd5b611b028261183e565b810181811067ffffffffffffffff82111715611b2157611b20611acc565b5b80604052505050565b5f611b3361161e565b9050611b3f8282611af9565b919050565b5f67ffffffffffffffff821115611b5e57611b5d611acc565b5b611b678261183e565b9050602081019050919050565b828183375f83830152505050565b5f611b94611b8f84611b44565b611b2a565b905082815260208101848484011115611bb057611baf611ac8565b5b611bbb848285611b74565b509392505050565b5f82601f830112611bd757611bd6611ac4565b5b8135611be7848260208601611b82565b91505092915050565b5f5f5f5f5f60a08688031215611c0957611c08611627565b5b5f86013567ffffffffffffffff811115611c2657611c2561162b565b5b611c3288828901611bc3565b955050602086013567ffffffffffffffff811115611c5357611c5261162b565b5b611c5f88828901611bc3565b945050604086013567ffffffffffffffff811115611c8057611c7f61162b565b5b611c8c88828901611bc3565b9350506060611c9d8882890161164e565b9250506080611cae8882890161164e565b9150509295509295909350565b611cc481611662565b82525050565b5f602082019050611cdd5f830184611cbb565b92915050565b611cec8161162f565b82525050565b5f602082019050611d055f830184611ce3565b92915050565b5f819050919050565b5f611d2e611d29611d24846117d7565b611d0b565b6117d7565b9050919050565b5f611d3f82611d14565b9050919050565b5f611d5082611d35565b9050919050565b611d6081611d46565b82525050565b5f602082019050611d795f830184611d57565b92915050565b7f4e487b71000000000000000000000000000000000000000000000000000000005f52602260045260245ffd5b5f6002820490506001821680611dc357607f821691505b602082108103611dd657611dd5611d7f565b5b50919050565b7f4e487b71000000000000000000000000000000000000000000000000000000005f52601160045260245ffd5b5f611e138261162f565b9150611e1e8361162f565b9250828203905081811115611e3657611e35611ddc565b5b92915050565b7f4e487b71000000000000000000000000000000000000000000000000000000005f52601260045260245ffd5b5f611e738261162f565b9150611e7e8361162f565b925082611e8e57611e8d611e3c565b5b828204905092915050565b5f611ea38261162f565b9150611eae8361162f565b9250828202611ebc8161162f565b91508282048414831517611ed357611ed2611ddc565b5b5092915050565b7f4e487b71000000000000000000000000000000000000000000000000000000005f52603260045260245ffd5b5f81905092915050565b50565b5f611f1f5f83611f07565b9150611f2a82611f11565b5f82019050919050565b5f611f3e82611f14565b9150819050919050565b611f51816117f6565b82525050565b5f606082019050611f6a5f830186611f48565b611f776020830185611f48565b611f846040830184611ce3565b949350505050565b5f81519050611f9a8161166d565b92915050565b5f60208284031215611fb557611fb4611627565b5b5f611fc284828501611f8c565b91505092915050565b5f611fd58261162f565b91507fffffffffffffffffffffffffffffffffffffffffffffffffffffffffffffffff820361200757612006611ddc565b5b600182019050919050565b61201b816118d9565b82525050565b5f6080820190506120345f830187611ce3565b6120416020830186611ce3565b61204e6040830185611ce3565b61205b6060830184612012565b95945050505050565b5f819050815f5260205f209050919050565b5f6020601f8301049050919050565b5f82821b905092915050565b5f600883026120c07fffffffffffffffffffffffffffffffffffffffffffffffffffffffffffffffff82612085565b6120ca8683612085565b95508019841693508086168417925050509392505050565b5f6120fc6120f76120f28461162f565b611d0b565b61162f565b9050919050565b5f819050919050565b612115836120e2565b61212961212182612103565b848454612091565b825550505050565b5f5f905090565b612140612131565b61214b81848461210c565b505050565b5b8181101561216e576121635f82612138565b600181019050612151565b5050565b601f8211156121b35761218481612064565b61218d84612076565b8101602085101561219c578190505b6121b06121a885612076565b830182612150565b50505b505050565b5f82821c905092915050565b5f6121d35f19846008026121b8565b1980831691505092915050565b5f6121eb83836121c4565b9150826002028217905092915050565b61220482611816565b67ffffffffffffffff81111561221d5761221c611acc565b5b6122278254611dac565b612232828285612172565b5f60209050601f831160018114612263575f8415612251578287015190505b61225b85826121e0565b8655506122c2565b601f19841661227186612064565b5f5b8281101561229857848901518255600182019150602085019450602081019050612273565b868310156122b557848901516122b1601f8916826121c4565b8355505b6001600288020188555050505b505050505050565b5f82825260208201905092915050565b5f6122e482611816565b6122ee81856122ca565b93506122fe818560208601611830565b6123078161183e565b840191505092915050565b5f6060820190508181035f83015261232a81866122da565b90506123396020830185611ce3565b6123466040830184612012565b94935050505056fea26469706673582212205e3e25e3dae9ec2539e2cdb5cad5b4ef69ff646f702f22c1c278f88e875c9ab364736f6c634300081e0033","linkReferences":{}},"methodIdentifiers":{"I_CUSD()":"ec5310e1","book(uint256,uint256,uint256)":"4c4c2010","createProperty(string,string,string,uint256,uint256)":"7472bc38","getBooking(uint256)":"6a5c841a","getNextBookingId()":"e81e2384","getNextPropertyId()":"bb5095d6","getProperty(uint256)":"32665ffb","getPropertyBookings(uint256)":"097b6be3","isDateRangeAvailable(uint256,uint256,uint256)":"a93db7d0","setPropertyActive(uint256,bool)":"00d913e0"},"id":26}